:020000040000fa
:080000000002040000000000f2
:020000040000fa
:0400080016030000db
:020000040000fa
:04000c005803000095
:020000040000fa
:04001000a203000047
:020000040000fa
:0400140036030000af
:020000040000fa
:04001800620300007f
:020000040000fa
:04001c00820300005b
:020000040000fa
:04002000c203000017
:020000040000fa
:040024005005000083
:020000040000fa
:04002800500500007f
:020000040000fa
:04002c00500500007b
:020000040000fa
:040030005005000077
:020000040000fa
:040034000e040000b6
:020000040000fa
:04003800860400003a
:020000040000fa
:04003c00500500006b
:020000040000fa
:040040005005000067
:020000040000fa
:040044005005000063
:020000040000fa
:04004800500500005f
:020000040000fa
:04004c00500500005b
:020000040000fa
:040050005005000057
:020000040000fa
:040054005005000053
:020000040000fa
:04005800500500004f
:020000040000fa
:04005c004404000058
:020000040000fa
:04006000a4040000f4
:020000040000fa
:040064005005000043
:020000040000fa
:04006800500500003f
:020000040000fa
:04006c00500500003b
:020000040000fa
:040070005005000037
:020000040000fa
:040074005005000033
:020000040000fa
:04007800500500002f
:020000040000fa
:04007c00500500002b
:020000040000fa
:040080005005000027
:020000040000fa
:040084005005000023
:020000040000fa
:04008800500500001f
:020000040000fa
:04008c00500500001b
:020000040000fa
:040090005005000017
:020000040000fa
:040094005005000013
:020000040000fa
:04009800500500000f
:020000040000fa
:04009c00500500000b
:020000040000fa
:0400a0005005000007
:020000040000fa
:0400a4005005000003
:020000040000fa
:0400a80050050000ff
:020000040000fa
:0400ac0050050000fb
:020000040000fa
:0400b00050050000f7
:020000040000fa
:0400b400c204000082
:020000040000fa
:0400b80050050000ef
:020000040000fa
:0400bc0050050000eb
:020000040000fa
:0400c00050050000e7
:020000040000fa
:0400c40050050000e3
:020000040000fa
:0400c80050050000df
:020000040000fa
:0400cc0050050000db
:020000040000fa
:0400d00050050000d7
:020000040000fa
:0400d40050050000d3
:020000040000fa
:0400d80050050000cf
:020000040000fa
:0400dc0050050000cb
:020000040000fa
:0400e00050050000c7
:020000040000fa
:0400e40050050000c3
:020000040000fa
:0400e80050050000bf
:020000040000fa
:0400ec0050050000bb
:020000040000fa
:0400f00050050000b7
:020000040000fa
:0400f40050050000b3
:020000040000fa
:0400f80050050000af
:020000040000fa
:0400fc0050050000ab
:020000040000fa
:0401000050050000a6
:020000040000fa
:0401040050050000a2
:020000040000fa
:04010800500500009e
:020000040000fa
:04010c00500500009a
:020000040000fa
:040110005005000096
:020000040000fa
:040114005005000092
:020000040000fa
:04011800500500008e
:020000040000fa
:04011c00500500008a
:020000040000fa
:040120005005000086
:020000040000fa
:040124005005000082
:020000040000fa
:04012800500500007e
:020000040000fa
:04012c00500500007a
:020000040000fa
:040130005005000076
:020000040000fa
:040134005005000072
:020000040000fa
:04013800500500006e
:020000040000fa
:04013c00500500006a
:020000040000fa
:040140005005000066
:020000040000fa
:040144005005000062
:020000040000fa
:04014800500500005e
:020000040000fa
:04014c00500500005a
:020000040000fa
:040150005005000056
:020000040000fa
:040154005005000052
:020000040000fa
:04015800500500004e
:020000040000fa
:04015c00500500004a
:020000040000fa
:040160005005000046
:020000040000fa
:040164005005000042
:020000040000fa
:04016800500500003e
:020000040000fa
:04016c00500500003a
:020000040000fa
:040170005005000036
:020000040000fa
:040174005005000032
:020000040000fa
:04017800500500002e
:020000040000fa
:04017c00500500002a
:020000040000fa
:040180005005000026
:020000040000fa
:040184005005000022
:020000040000fa
:04018800500500001e
:020000040000fa
:04018c00500500001a
:020000040000fa
:040190005005000016
:020000040000fa
:040194005005000012
:020000040000fa
:04019800500500000e
:020000040000fa
:04019c00500500000a
:020000040000fa
:0401a0005005000006
:020000040000fa
:0401a4005005000002
:020000040000fa
:0401a80050050000fe
:020000040000fa
:0401ac0050050000fa
:020000040000fa
:0401b00050050000f6
:020000040000fa
:0401b40050050000f2
:020000040000fa
:0401b80050050000ee
:020000040000fa
:0401bc0050050000ea
:020000040000fa
:0401c00050050000e6
:020000040000fa
:0401c40050050000e2
:020000040000fa
:0401c80050050000de
:020000040000fa
:0401cc0050050000da
:020000040000fa
:0401d00050050000d6
:020000040000fa
:0401d40050050000d2
:020000040000fa
:0401d80050050000ce
:020000040000fa
:0401dc0050050000ca
:020000040000fa
:0401e00050050000c6
:020000040000fa
:0401e40050050000c2
:020000040000fa
:0401e80050050000be
:020000040000fa
:0401ec0050050000ba
:020000040000fa
:0401f00050050000b6
:020000040000fa
:0401f40050050000b2
:020000040000fa
:0401f80050050000ae
:020000040000fa
:0401fc0050050000aa
:020000040000fa
:0402000050050000a5
:020000040000fa
:0402040050050000a1
:020000040000fa
:04020800500500009d
:020000040000fa
:04020c005005000099
:020000040000fa
:040210005005000095
:020000040000fa
:040214005005000091
:020000040000fa
:04021800500500008d
:020000040000fa
:04021c005005000089
:020000040000fa
:040220005005000085
:020000040000fa
:040224005005000081
:020000040000fa
:04022800500500007d
:020000040000fa
:04022c005005000079
:020000040000fa
:040230005005000075
:020000040000fa
:040234005005000071
:020000040000fa
:04023800500500006d
:020000040000fa
:04023c005005000069
:020000040000fa
:040240005005000065
:020000040000fa
:040244005005000061
:020000040000fa
:04024800500500005d
:020000040000fa
:04024c005005000059
:020000040000fa
:040250005005000055
:020000040000fa
:040254005005000051
:020000040000fa
:04025800500500004d
:020000040000fa
:04025c005005000049
:020000040000fa
:040260005005000045
:020000040000fa
:040264005005000041
:020000040000fa
:04026800500500003d
:020000040000fa
:04026c005005000039
:020000040000fa
:040270005005000035
:020000040000fa
:040274005005000031
:020000040000fa
:04027800500500002d
:020000040000fa
:04027c005005000029
:020000040000fa
:040280005005000025
:020000040000fa
:040284005005000021
:020000040000fa
:04028800500500001d
:020000040000fa
:04028c005005000019
:020000040000fa
:040290005005000015
:020000040000fa
:040294005005000011
:020000040000fa
:04029800500500000d
:020000040000fa
:04029c005005000009
:020000040000fa
:0402a0005005000005
:020000040000fa
:0402a4005005000001
:020000040000fa
:0402a80050050000fd
:020000040000fa
:0402ac0050050000f9
:020000040000fa
:0402b00050050000f5
:020000040000fa
:0402b40050050000f1
:020000040000fa
:0402b80050050000ed
:020000040000fa
:0402bc0050050000e9
:020000040000fa
:0402c00050050000e5
:020000040000fa
:0402c40050050000e1
:020000040000fa
:0402c80050050000dd
:020000040000fa
:0402cc0050050000d9
:020000040000fa
:0402d00050050000d5
:020000040000fa
:0402d40050050000d1
:020000040000fa
:0402d80050050000cd
:020000040000fa
:0402dc0050050000c9
:020000040000fa
:0402e00050050000c5
:020000040000fa
:0402e40050050000c1
:020000040000fa
:0402e80050050000bd
:020000040000fa
:0402ec0050050000b9
:020000040000fa
:0402f00050050000b5
:020000040000fa
:0402f40050050000b1
:020000040000fa
:0402f80050050000ad
:020000040000fa
:0402fc0050050000a9
:020000040000fa
:0403000050050000a4
:020000040000fa
:0403040050050000a0
:020000040000fa
:04030800500500009c
:020000040000fa
:04030c005005000098
:020000040000fa
:040310005005000094
:020000040000fa
:100400000f4021000eff24000e01880000000000b4
:10041000000020000000e000020032000001200087
:1004200020028800140007009f0107000000e00080
:1004300003003a00c0e42100010020000200370060
:100440000000200001002000810f70000100320038
:100450000f000700000020000000e0000200320052
:100460000000020000000000f01202000000000086
:100470000040da000000fe00200020000000e00044
:1004800002003200100020009001880000000600e9
:10049000a1028800800478000000eb001f003700f4
:1004a000e284440054a0b4009905ba00e2844400f8
:1004b00054a0b4009906ba00e284440054a0b400e9
:1004c0000006eb00476fde00fd07b200ae018800ba
:1004d000636ce10003003a000ad801000000eb0061
:1004e0000e003700606ce10008003a00004deb00a0
:1004f0000a05e800020039003420ec000af0a000f0
:100500008b05e900f9ff3e00040037006168e10057
:10051000010032000086eb000b00070019c7ba008b
:100520000e04e0001905ba0003003a000a00e000da
:10053000dbff3a0000000600fe07b200ae028800b2
:100540008a047800f5ff37000cd0a300e20f4d00bd
:100550001c00390089027800354dba000a05e80010
:10056000020039003420ec000af0a0008b05e900fd
:100570000f003200254dba000a05e80002003900dc
:100580003420ec000af0a0008b05e90008003200de
:100590000c00e0000600320015cdba000a05e800a4
:1005a000020039003420ec000af0a0008b05e900bd
:1005b0008984e80054a0b4000b00e000e2ff3a0098
:1005c000000006009902ba00055d78008b05e9007d
:1005d000f7ff3200c82ade00055d78008b05e900d0
:1005e000f3ff32000c00e000f1ff320019ddba0029
:1005f000eeff3700d61b040000000000a01e040020
:100600000000000046100400000000005a10040022
:10061000000000006e1004000000000082100400c2
:100620000000000094100400000000003600f800f4
:10063000809fbe00829fbe00849fbe00869fbe003a
:100640000000fa00c028a9000000eb00d30d07004d
:100650000080fa004f03be004f02be004f01be00f3
:100660004f00be003600f900004006003600f800da
:10067000809fbe00829fbe00849fbe00869fbe00fa
:100680000000fa00ca0d0700c048a90010002000b1
:10069000c20d07000080fa004f03be004f02be00eb
:1006a0004f01be004f00be003600f90000400600ba
:1006b0000000fa002c2ea800c068a9000080fa00f3
:1006c000004006003600f800809fbe00829fbe00fa
:1006d000849fbe00869fbe000000fa00c088a9006b
:1006e00030002000ad0d07000080fa004f03be006f
:1006f0004f02be004f01be004f00be003600f900a1
:10070000004006003600f800809fbe00829fbe00b9
:10071000849fbe00869fbe000000fa00c0a8a9000a
:10072000400020009d0d07000080fa004f03be002e
:100730004f02be004f01be004f00be003600f90060
:10074000004006003600f800809fbe00829fbe0079
:10075000849fbe00869fbe000000fa00c608a90064
:10076000700020008d0d07000080fa004f03be00ce
:100770004f02be004f01be004f00be003600f90020
:10078000004006003600f800809fbe00829fbe0039
:10079000849fbe00869fbe000000fa0021468000b4
:1007a00000102000008060000000e0000300320024
:1007b000c508a900c0002000780d07002146800070
:1007c00000002800008060000000e000030032000c
:1007d000c5e8a90080002000700d070021468000b8
:1007e00000022000008060000000e00003003200f2
:1007f000c4a8a90090002000680d070020468000d2
:10080000700060000000e00003003200c488a9000e
:10081000a0002000610d0700ffff37003600f80040
:10082000809fbe00829fbe00849fbe00869fbe0048
:100830000000fa00508280000000e0000200320058
:100840005082800000000100f00621001040780076
:100850008040e800f006210001487800e006210011
:1008600011c0b300014878000068a9000080fa00b8
:100870004f03be004f02be004f01be004f00be003e
:100880003600f900004006003600f800809fbe00e8
:10089000829fbe00849fbe00869fbe003200f8008b
:1008a0003400f80010002000a00188001000200093
:1008b00090018800000000000000fa000140800064
:1008c00000002200008060000000e000060032000e
:1008d000608280000000e000020032006082800040
:1008e0000000010001a8a9000080fa003400f9000e
:1008f0003200f9004f03be004f02be004f01be00a0
:100900004f00be003600f900004006003600f80037
:10091000809fbe00829fbe00849fbe00869fbe0057
:100920000000fa000a0c07000088a9000080fa0005
:100930004f03be004f02be004f01be004f00be007d
:100940003600f900004006003600f800809fbe0027
:10095000829fbe00849fbe00869fbe000000fa00fa
:10096000fe0b070001c8a9000080fa004f03be007b
:100970004f02be004f01be004f00be003600f9001e
:10098000004006003600f800809fbe00829fbe0037
:10099000849fbe00869fbe000000fa0051208000a8
:1009a00000022000008060000000e0001f00320014
:1009b0005120800000002200008060000000e00064
:1009c00005003200e08180000000e00002003200fb
:1009d000e081800000000100512080000000210023
:1009e000008060000000e00005003200f08180001f
:1009f0000000e00002003200f081800000000100f1
:100a00005120800000802000008060000000e00095
:100a100005003200008280000000e0000200320089
:100a200000828000000001000aa4a900502080007c
:100a3000620060000000e0000600320020828000ba
:100a40000000e0000200320020828000000001006f
:100a50000a24a900512080000004200000806000ca
:100a60000000e00006003200108280000000e0007c
:100a70000200320010828000000001000ac4a900b8
:100a80000468a9000080fa004f03be004f02be00b8
:100a90004f01be004f00be003600f90000400600c6
:100aa0000040da000000fe000000050003f0a20094
:100ab000889fbe008a9fbe008c1f78001701070028
:100ac0001e0133006450e1004f0032006420e10059
:100ad0005200320003826c0007003b000905d00081
:100ae0000306d000820f54000c065d00020039009e
:100af00002003200890178000306780085825500e3
:100b000004003d000003fd008103fd008502ea00b2
:100b10008b854200840f720002003b0060001000d1
:100b2000e08018006011b8000005eb007a28e100b1
:100b30000a00390006007800c75ddd00f707b20043
:100b4000878075002d003700828171000a017800ce
:100b5000610560008180d1000080d3008502e9003a
:100b6000f9ff3b00060440008784480002003b0078
:100b700060041400e0841c000988a3000700320010
:100b80008a81710082817100610164008904d10051
:100b90000884d3008b05e800170037000978a3000c
:100ba00013003a000b00e000130034008b05e9004d
:100bb0000804440089844c000a4474000978a300a6
:100bc0000d003a000b00e000070034008b05e9003f
:100bd0000804440089844c0001003a000b00200006
:100be0000978a300f7ff32000001eb000200370094
:100bf000828171000a0178008d0007000cf0a700c7
:100c000001f0a000d60037006420e10002003a00a5
:100c1000838f6c00d60033000801be000200be00c6
:100c2000cf003700889fbe008a9fbe008c1f7800cf
:100c3000ba000700c100330003866c006450e10075
:100c40002e0032006420e100330032006150e100e8
:100c50002f0032006120e10031003200858555000f
:100c6000eb07b00009002000080420000500370051
:100c70000804440089844c000a0031000603430044
:100c800087834b000001530081815b00f8ff330034
:100c90000203be000800a0000804440089844c0040
:100ca000f6ff3900c639dd00830173000100320010
:100cb000130020008904d1000884d3000998a30000
:100cc000050032000800a7000300a0008904d1003d
:100cd0000884d3008b05e8008904d1000884d30080
:100ce0000001eb000281d2005100070001f0a100d9
:100cf0000cf0a70001f0a000990037006420e1008b
:100d00009b0032000801be000200be00f7ff370062
:100d10006120e100960032006000b800f3ff370068
:100d20000000200001f82700f0ff37000001be009e
:100d3000650007000470a70003f0a1006509b10079
:100d4000160032000d0035006828e100060035006d
:100d5000f0ff2f00f1ff27000300e00013003b002d
:100d600001002800000005000000400081804800cc
:100d70008502e900fcff3a0008003700f88f4200c6
:100d800002003c008000eb00000005008100d10063
:100d90000080d3008502e800fcff3a000300e00079
:100da00002003b0060001000e08018000000060018
:100db0000001be00440007000470a70003f0a1007a
:100dc00003f8a30013003a006509b10010003200d7
:100dd000090035006928e100020035000100280003
:100de0000000050000004000818048008502e90005
:100df000fcff3a0000000600f88f420005003500b5
:100e00008100d1000080d3008502e800fcff3a0099
:100e1000000006008000eb00000005004f89de00a6
:100e200082017800890037006011b8009700370010
:100e300081002000618055000b003d000b00200068
:100e400061fe2f000100e1001d003400828171006d
:100e5000610164008904d1000884d3000000e80027
:100e6000faff3a0071002000610064000300700086
:100e7000020060000900320061044400e0844c007c
:100e80000988a500050032008b05e8006808e1002c
:100e900002003a008904d1000884d300f20f200038
:100ea0000258e10005003d00c75ddd00f907b20012
:100eb0008980750008007800000006000bf8270004
:100ec0008b00780000000500c70ade00f107b200c1
:100ed000f50fb20008003200e1cf420002003200fc
:100ee0000170a00024000500810f70000100320095
:100ef0000408050044000500810f700002003a005c
:100f0000140005008502e9000000400081c048008f
:100f1000fcff3b000170a000240005000004be009f
:100f2000e9ff07000003be000405be000200be008a
:100f3000e5ff0700844f7500000006000200be00b8
:100f40006450e100050036006420e1000200360034
:100f50000968a30001003a000800be000160a0007b
:100f60004f0678004f05be004f04be00000006008b
:100f7000f0ff2f00f1ff2700f9ff3700889fbe0028
:100f80008a9fbe008c1f7800e4ff0700ebff330050
:100f900003866c006450e100240032006420e1000c
:100fa000270032006150e100220032006120e100a0
:100fb000210032008b854200eb07b1000134b800fc
:100fc000003ab8000804420089844a00013ab80097
:100fd0000030b8008880400009014a000400330056
:100fe0000000400081804800020149008b05e900b3
:100ff000c909dd00830170000100320013002000e8
:10100000c814de004814dd004709de001200b200fb
:10101000c808de000884700085ff070001f0a10009
:101020000cf0a70001f0a000cdff37006120e10027
:10103000cfff32000801be000200be00f7ff3700fc
:101040006150e100fcff3a00c9ff3700881f7800bb
:10105000030478000300e00007003d00600010007a
:10106000e080180060011900e081190002003b00d7
:1010700001f02d00030037000400070008f0a7006e
:1010800001f0a0004f04780000000600889fbe0019
:101090008a9fbe0000827000040271000482710009
:1010a000260032000004be000200be006011b8003d
:1010b0006b092000950220000182cf000a00390050
:1010c0000541b1000082cf00070039000541b100a1
:1010d0000982cf00040039000541b1000882cf0029
:1010e000010039000541b1000542520012003200f2
:1010f0000a003b0082817100610164008100d1001f
:101100000080d3008984d3000884d3008b05e800d5
:101110000442e800f7ff3a000700370008044400e3
:1011200089844c0000004800818048008b05e9005c
:101130000442e900f9ff3a003dff07004f05be00f9
:081140004f04be000000060090
:020000040000fa
:101148000200fa00000f78001e007800e10f50003e
:1011580009003200e10f500005003900e20f50008d
:1011680007003200e30f5000070032000800370084
:1011780001eba8000600370011eba80004003700b7
:1011880021eba8000200370031eba80000000000a6
:101198000080fa00000006000400fa00000f780042
:1011a800110798001e007800e10f50000b00320074
:1011b800e10f500005003900e20f50000b0032002b
:1011c800e30f50000d003200100037009e00900021
:1011d80021588800062bef000c0037009e00900075
:1011e800a1588800162bef00080037009e009000d9
:1011f80021598800262bef00040037009e0090003c
:10120800a1598800362bef00000000000080fa008a
:10121800000006000400fa00000f7800110798008b
:101228001e007800e10f50000a003200e10f500064
:1012380005003900e20f500009003200e30f5000aa
:101248000a0032000c0037009e00900061588800a8
:10125800090037009e009000e1588800060037001a
:101268009e00900061598800030037009e0090009e
:10127800e1598800000000000080fa000000060024
:101288000c00fa00004f9800510798000000eb008e
:10129800100798000000eb00000f78006000b8000d
:1012a80020079800310798000e4890000080fb0046
:1012b800c400dd00002021000080400010007800fc
:1012c80061006000100798001e0090000000e00018
:1012d80018003a000e4890000080fb00c400dd00b2
:1012e800002021000080400090007800c0ff21000d
:1012f800008060004200de008000eb005e0190008c
:101308000089be005e009000a00090000100a100ce
:10131800210098000e4890000080fb00c400dd000a
:10132800002021000080400010007800620f60005b
:101338006c0037000e4890000080fb00c400dd0000
:101348000020210000804000100078006101b800f2
:10135800c0ff21000100200002027800030178008c
:10136800800178000100780003026200000061003b
:101378008000eb00c000dd00000020000001be007e
:101388006120b80000017100818171002207980076
:10139800330798002e009000be009000c000dd00ca
:1013a800000020005e0190000089be005e009000f1
:1013b80010027800900290000e4890000080fb0018
:1013c8004400dd008080e80000202100008040000b
:1013d800100078006101b800f0ff20000100200033
:1013e800020378000301780080017800010078008a
:1013f80003036300000061008000eb00c000dd0013
:10140800000020000001be006130b800000171003a
:10141800818171004618dd00ca10de00810070006d
:101428004610dd0004004000858048005e01900001
:101438000089be005e0090001002780090029000c3
:101448000e4890000080fb004400dd00e4004000ee
:101458000020210000804000100078004a00de00d3
:101468006101b800f0ff2f0001002000020378009e
:10147800030178008001780001007800030363000d
:10148800000061008000eb00c000dd0000002000cb
:101498000001be006130b800000171008181710057
:1014a80004004100858049005e0190000089be006b
:1014b8005e009000a00090000100a00021009800ac
:1014c8000e4890000080fb004400dd00e40040006e
:1014d80000202100008040009000780000202000bb
:1014e800008f60001e0078000000e0000500320058
:1014f8005e009000a00090000110a000210098005c
:101508007b0037005e009000a00090000110a10051
:10151800210098005e009000300090008e489000f6
:101528008180fb00c408dd006681400001202100a5
:1015380081004100910078008140780001487800de
:101548005e009000300090000000e8008e48900097
:101558008180fb00c408dd00668140000120210075
:101568008100410091007800c808de0081407800c1
:10157800014878005e009000300090000080e8008c
:101588008e4890008180fb00c408dd00688140001f
:1015980001202100810041009100780081407800fd
:1015a800014878005e009000300090006300400021
:1015b8008e4890008180fb00c408dd0068814000ef
:1015c800012021008100410091007800c808de0058
:1015d80081407800014878005e009000300090005b
:1015e800640040008e4890008180fb00c408dd0044
:1015f8006a814000012021008100410091007800ab
:1016080081407800014878005e009000300090002a
:10161800650040008e4890008180fb00c408dd0012
:101628006a8140000120210081004100910078007a
:10163800c808de0081407800014878005e0090000c
:1016480030009000660040008e4890008180fb00ca
:10165800c408dd006c8140000120210081004100a8
:101668009100780081407800014878005e00900081
:1016780030009000670040008e4890008180fb0099
:10168800c408dd006c814000012021008100410078
:1016980091007800c808de00814078000148780091
:1016a8000e4890000080fb004400dd00e40040008c
:1016b80000202100008040001000780000407800e1
:1016c8006f4060006f4060006f406000de00900077
:1016d8000080fb006f0060004200dd00a101900067
:1016e80032fc2f000281610002007000a000980007
:1016f8000080fa00000006000400fa00000f7800dd
:10170800110798001e009000200090006100600002
:101718000000e00015003a001e00900090009000c4
:101728001000780080007800f07f200000806000c2
:10173800c200dd001e007800010878001e80e80065
:101748008000eb00010878009e007800648040006b
:101758009e009000a1009000c208de00efc060006b
:101768008180fb0001087800250037001e009000ea
:1017780090009000100078004008de00800078009b
:10178800c0ff210000806000800078003100b300b5
:101798001e007800010878001e81e8001e009000f5
:1017a8009000900010007800ca09dd004600de00b5
:1017b80000807100c608de0080007800f0ff20007d
:1017c80000806000000978009e0078006481400075
:1017d8001e009000200090004200de006f40600074
:1017e8008081fb001e00900090009000100078009f
:1017f800000078004a00dd00008041000009780000
:101808001e009000300090000000e0003b00320015
:101818009e017800668041009e009000b100900013
:101828008100e800914078008180fb004809dd00d4
:101838009e009000b1009000914078008180fb00ec
:1018480081004100010878009e007800688040000f
:101858009e009000b1009000e38040009140780025
:101868008180fb004809dd009e009000b1009000d7
:101878008180e800914078008180fb008100410070
:10188800010878009e0178006a8041009e0090005f
:10189800b1009000e5804000914078008180fb0015
:1018a8004809dd009e009000b1009000e4804000ef
:1018b800914078008180fb00810041000108780098
:1018c8009e0078006c8040009e009000b10090005f
:1018d800e7804000914078008180fb004809dd00e6
:1018e8009e009000b1009000e68040009140780092
:1018f8008180fb0081004100010878000080fa0027
:10190800000006000000fa002468a9000c24ef007b
:1019180001208000f08f2f000080600000a0a00050
:10192800002088000000000001208000000e200038
:101938008080600000082000808f5000faff3a0085
:101948007000200080208800002a24009020880051
:1019580010002c003020880010002000a0208800f3
:101968000024ef000004a800c1208000c0ff2f0061
:1019780000806000c020880080218000ff00600097
:1019880000fe29000100700080218800a02180004d
:101998007f006000a0218800c02180007f006000d7
:1019a800c021880081218000c0ff2f0000806000d6
:1019b80080218800a1218000c0ff2f0000806000e6
:1019c800a0218800c1218000c0ff2f000080600096
:1019d800c02188003224ef003624ef003a24ef00bb
:1019e8003064a9003464a9003864a900002280008a
:1019f800ff0060000014230001007000002288002e
:101a080001228000c0ff2f000080600000228800b3
:101a18004224ef004064a9000121800000ff2f004c
:101a2800008060000000a000002188000004a900d8
:101a380030e4a80031e4a90032e4a90033e4a900a5
:101a480034e4a90035e4a90036e4a90037e4a90084
:101a580081218000c0ff2f00008060008021880065
:101a680081218000f0cf2f00008060008021880055
:101a780091218000c0ff2f00008060009021880025
:101a880091218000f0cf2f00008060009021880015
:101a9800a1218000c0ff2f0000806000a0218800e5
:101aa800a1218000f0cf2f0000806000a0218800d5
:101ab800b1218000c0ff2f0000806000b0218800a5
:101ac800b1218000f0cf2f0000806000b021880095
:101ad8002024ef002224ef002824ef002a24ef001e
:101ae8000a24a90001208000f08f2f0000806000e8
:101af800002088000000000001208000000e200067
:101b0800008060000000e000fbff3a006004210054
:101b180060010700a005210068010700e006210018
:101b28007001070020082100770107004009210003
:101b38007f0107002468a8000c24a8000ca4a800b2
:101b48000080fa00000006000000fa00204420008f
:101b5800800078000000eb00aefd070000202100a7
:101b6800800078000000eb008bfd07000000eb0010
:101b780073fd07000080fa00000006000000fa006c
:101b8800004420008000780010002000a1fd07001c
:101b98000020210080007800100020007efd070052
:101ba8001000200066fd07000080fa000000060013
:101bb8000400fa00100798000000eb00000f7800fe
:101bc80021000700e40f5000060032001e009000bc
:101bd800e10f5000030032001e009000e40f500097
:101be80014003a001e009000004078006740600032
:101bf8000080fb00670060004800dd0002208000d4
:101c0800f18f2f0081006100010070000020880022
:101c180000000000002080004500de0067406000f2
:101c28008080fb001e009000808f5000f9ff3a0072
:101c38000200370010002000000f78001e00780016
:101c48000080fa00000006000000fa000020800072
:101c58004500de00674060000080fb000080fa005d
:101c6800000006000c00fa00400798005107980091
:101c78000000eb00000f78000043200010079800d8
:101c88000040eb00604798005e0090002000900044
:101c98004200de006f4060000080fb00e80f50004b
:101ca800010034001e00a0000000eb00200798008f
:101cb800280037001e0090009040780000c8b3004c
:101cc80000c060000004e0001c0032001e0090000c
:101cd80010407800684060000004e00017003a00f7
:101ce800012021002e0090004400dd00008040000b
:101cf800de00900080fe07004e0090000040780053
:101d0800e34060001e009000e3c06000904178004e
:101d1800c2cfb30002c16100814071000148780060
:101d28001e009000904078000134a000014878001f
:101d380010c0b30060479800090037001e009000eb
:101d48000000e800100798002e0090000000e8004e
:101d5800200798002e0090000000e000d5ff320018
:101d68006e4090000004a2000004e000020032006f
:101d78009e007800638f70001e0078000080fa00d3
:101d8800000006000800fa00300798000040eb0049
:101d9800204798003e009000300090000000e000ce
:101da80002003a002e4090002e00370001218000ea
:101db800210798002e0090000000e0002800320063
:101dc8000000eb00000f7800200037003082800010
:101dd800ae0090000008de0061006000004078005e
:101de8000004e0000e0032003082800000407800dd
:101df800be00900022fd0700308280001100200004
:101e08000008dd000080ea008000780000218000e2
:101e1800008060000021880010c0b30020479800af
:101e2800308280000000e800308288003082800024
:101e3800ef0f5000010036004630ef002e409000b2
:101e48000004e00005003a001e0fe8001e007800bc
:101e5800ef0f5000ddff36000100370000000000e2
:101e68002e4090000080fa00000006000000fa00f2
:101e7800502080004d00de00614060000080fb00c3
:101e880000f0a7000000ea000000ea004f00de00b2
:101e9800004078000080fa00000006000000fa0008
:101ea800502080004b00de00614060000080fb0095
:101eb80000f0a7000000ea000000ea004f00de0082
:101ec800004078000080fa00000006000000fa00d8
:101ed800502080004900de00614060000080fb0067
:101ee80000f0a7000000ea000000ea004f00de0052
:101ef800004078000080fa00000006000200fa00a6
:101f08000040eb00004f78000ec4bf000004e00062
:101f1800050032000ec4bf000004e00002003500d6
:101f280010c0b300004f78001e4078000080fa000f
:101f3800000006000000fa00502080004c00de007f
:101f4800614060000080fb0000f0a7000000ea008c
:101f58000000ea004f00de00004078000080fa0030
:101f6800000006000000fa00502080004a00de0051
:101f7800614060000080fb0000f0a7000000ea005c
:101f88000000ea004f00de00004078000080fa0000
:101f9800000006000200fa000040eb00004f780045
:101fa8000fc4bf000004e000050032000fc4bf00ea
:101fb8000004e0000200350010c0b300004f7800b4
:101fc8001e4078000080fa00000006000600fa00b3
:101fd8000000eb00000f7800012180002107980025
:101fe8002e0090000000e000110032000000eb001d
:101ff800100798000b0037001e009000ae009000fc
:102008000008de0061006000004078000004e00085
:10201800010032001e0fe8001e0090000000e800da
:10202800100798001e009000ef0f5000f2ff3600d6
:102038001e007800004078000080fa0000000600ca
:102048000000fa000ac4a9000cc4a80001208000fe
:10205800f08f2f00008060000080a0000020880022
:102068000000000001208000000e20008080600039
:1020780000022000808f5000faff3a000080fa002a
:10208800000006000000fa00300107000080fa0096
:10209800000006000200fa00000f78001e00780019
:1020a800e08188000080fa00000006000000fa00c5
:1020b800290107000080fa00000006000200fa006b
:1020c800000f78001e007800f08188000080fa0078
:1020d800000006000000fa00220107000080fa0054
:1020e800000006000200fa00000f78001e007800c9
:1020f800008288000080fa00000006000000fa0054
:102108000080fa00000006000200fa00000f7800c4
:102118001e007800108288000080fa000000060087
:102128000000fa00120107000080fa000000060013
:102138000200fa00000f78001e0078002082880054
:102148000080fa00000006001400fa00000f980052
:10215800110f980003000900001feb008e00b1006a
:102168007e0798001e0890009000900010007800ec
:1021780040079800510798001e08900040409000c2
:10218800614060000080fb0061006000ee0090008c
:102198000100a10001007000600798001e0890006f
:1021a80050409000614060000080fb0061006000ca
:1021b80000004000ee0090000110a1000100700036
:1021c800600798001e089000604090006f40600013
:1021d8000080fb006f0060004200dd006e0190008f
:1021e80031fc2f0081006100010070006007980039
:1021f8007e0090009e089000f14090000148780011
:102208007e0090000000e8009e0890008148900041
:10221800014878007e0090000080e8009e08900049
:1022280091489000014878007e00900063004000cb
:102238009e089000a1489000014878007e00900018
:10224800640040009e089000b14890000148780062
:102258007e009000650040009e089000c1489000f4
:10226800014878007e009000660040009e089000bb
:10227800d1489000014878007e0090006700400037
:102288009e089000e14890000148780068004700e7
:10229800800078000e08900072fe070000f0a7008a
:1022a8000000ea000000ea004f00de00004078006d
:1022b8000080fa00000006001400fa00100f9800d1
:1022c8000040eb00004f7800e100470007000900dc
:1022d8008058eb000e00e800000f98006a004700e5
:1022e800a8fe07000004e000430032005e009000f2
:1022f800ee0090001e0990000089be007e0090004c
:1023080061406000804078001e08900041409800bd
:102318007e009000620060000000e00004003200cf
:102328001e08900021c0b3005140980003003700f8
:102338001e08900011c0b300514098000e0890008c
:10234800904078001e089000714098000e08900098
:102358000000e800904078001e08900001489800ae
:102368000e0890000080e800904078001e08900059
:10237800114898000e0890006300400090407800d3
:102388001e089000214898000e0890006400400044
:10239800904078001e089000314898000e08900080
:1023a80065004000904078001e0890004148980061
:1023b8000e08900066004000904078001e089000cb
:1023c800514898000e08900067004000904078003f
:1023d8001e089000614898007e0090004200de00d0
:1023e8006f406000804078001e08900061409800af
:1023f80010c0b300004f78001e4078000080fa003b
:10240800000006000000fa00502080004d00de00a9
:10241800614060000080fb0000f0a7000000ea00b7
:102428000000ea004f00de00004078000080fa005b
:10243800000006000000fa00502080004b00de007b
:10244800614060000080fb0000f0a7000000ea0087
:102458000000ea004f00de00004078000080fa002b
:10246800000006000000fa00502080004c00de004a
:10247800614060000080fb0000f0a7000000ea0057
:102488000000ea004f00de00004078000080fa00fb
:10249800000006000600fa000000eb00000f7800bc
:1024a80001218000210798002e0090000000e00024
:1024b800110032000000eb00100798000b003700f5
:1024c8001e009000ae0090000008de006100600071
:1024d800004078000004e000010032001e0fe80010
:1024e8001e0090000000e800100798001e009000f1
:1024f800ef0f5000f2ff36001e0078000040780011
:102508000080fa00000006000000fa000ac4a900d2
:102518000cc4a80001208000f08f2f00008060000c
:102528000080a0000020880000000000012080003a
:10253800000e20008080600000022000808f500084
:10254800faff3a000080fa00000006000000fa00d6
:102558000080fa00000006000000fa000080fa007f
:10256800000006000000fa000080fa0000000600e3
:102578000000fa000080fa00000006000400fa00db
:10258800000f7800110798001e007800e20f500035
:1025980007003200e30f500008003200e10f50003e
:1025a8000a003a009e009000316188000800370058
:1025b8009e00900031628800050037009e00900060
:1025c80031638800000000000100370000000000af
:1025d8000080fa00000006004000fa0081050700ac
:1025e80059fd070065fd070007000900001feb0003
:1025f8000e01b100f0004700070009008018eb0049
:102608008e0078000102b000070009008018eb0076
:102618002c2ea800401f20001f0107002c2ea90007
:102628008e0078000103b000030009008018eb0059
:102638006000b800401f9800511f98000003200058
:102648000e004000701f98002c2ea90040002000aa
:1026580057fd07007cfd0700e40f50001f003a00fb
:102668000000eb0052fd07000000e0001b003a00ec
:102678003830ef003a30ef001100370053fe070002
:102688000004e0000e003200800320000e0040002d
:10269800bcfd07000004e0000300320010c0b300d6
:1026a80018f0b7000d003700c0818000d18180008c
:1026b80061004000e0804800c0818800d181880026
:1026c800c2818000d3818000f070220001002000c8
:1026d800800f5100818f5900e8ff340018d0bf00e7
:1026e8000004e000e60032004e199000de19900068
:1026f800a018200001002000800f5100818f590090
:1027080089003a003830ef003a30ef001200370005
:10271800c0818000d18180007e1a9000c281800033
:10272800d381800002017800020142001241780042
:102738000281fb00000078000000400002377800aa
:10274800c0818000d181800061004000e0804800a5
:10275800c0818800d1818800c2818000d381800037
:102768007000200001002000800f5100818f590067
:10277800e7ff34001e0078006100600000f0a70049
:102788000000ea000000ea004f00de000040780088
:1027980000f0b7001e007800620060000000d10061
:1027a80000f0a7000000ea000000ea004f00de0089
:1027b8000040780002f0b7001e0090006100600041
:1027c80000f0a7000000ea000000ea004f00de0069
:1027d8000040780001f0b7001e0090006200600021
:1027e8000000d10000f0a7000000ea000000ea00a5
:1027f8004f00de000040780003f0b7002e00900084
:102808006100600000f0a7000000ea000000ea0094
:102818004f00de000040780004f0b7002e00900062
:10282800620060000000d10000f0a7000000ea008c
:102838000000ea004f00de000040780005f0b70015
:102848002e009000640060004200de0000f0a70047
:102858000000ea000000ea004f00de0000407800b7
:1028680006f0b7002e009000680060004300de000c
:1028780000f0a7000000ea000000ea004f00de00b8
:102888000040780007f0b7002e009000700060004c
:102898004400de0000f0a7000000ea000000ea00a3
:1028a8004f00de000040780008f0b700ae0090004e
:1028b80000022000008060004500de0000f0a70054
:1028c8000000ea000000ea004f00de000040780047
:1028d8000af0b700ae0090000004200000806000fd
:1028e8004600de0000f0a7000000ea000000ea0051
:1028f8004f00de00004078000bf0b700ae009000fb
:1029080000082000008060004700de0000f0a700fb
:102918000000ea000000ea004f00de0000407800f6
:102928000cf0b700560037004e199000de199000e1
:10293800a028200001002000800f5100818f59003d
:1029480026003a003830ef003a30ef001300370025
:10295800c0818000d18180007e1a9000c2818000f1
:10296800d381800002017800020142001241780000
:102978000281fb0000007800000040007000400069
:1029880002377800c0818000d1818000610040005a
:10299800e0804800c0818800d1818800c281800021
:1029a800d38180007000200001002000800f5100ba
:1029b800818f5900e6ff34000e089000d08088000f
:1029c8001e089000e08088003e089000f080880093
:1029d8004e08900020818800290037004e19900089
:1029e800de199000a038200001002000800f51005f
:1029f800818f590022003a003830ef003a30ef005a
:102a080013003700c0818000d18180007e1a9000b9
:102a1800c2818000d3818000020178000201420057
:102a2800124178000281fb0000007800000040009d
:102a38000002b00002377800c0818000d181800098
:102a480061004000e0804800c0818800d181880092
:102a5800c2818000d3818000700020000100200026
:102a6800800f5100818f5900e6ff34000e1090004e
:102a78008000eb00eaf80700a0818800b181880097
:102a8800250007005e000700a8010700760107007f
:102a9800c9010700e2fe37000200fa00000f7800c3
:102aa8001e007800cf80de0012bf29008289b9009d
:102ab800e002b900840178000301410013bf290036
:102ac8000300b8000101410082007800a304070058
:102ad8000080fa00000006000400fa00008fbe0023
:102ae8009e009000800220008089b9001e007800b6
:102af800e000b900000141009e007800800220003b
:102b08000008b80001014100820078009304070022
:102b18000080fa00000006000000fa0007d0bf009d
:102b28000004e00003003a0008d0bf000004e00001
:102b38000700320005d0bf000004a2000004e00036
:102b480003003200040ea800054ea800020037005a
:102b5800040ea900054ea9000ad0bf000004e00039
:102b680003003a000bd0bf000004e000030032006d
:102b780010c0b30011f0b700010037001170ef006a
:102b880000d0bf000004e00009003a0001d0bf00f7
:102b98000004e00006003a0002d0bf000004e00094
:102ba80003003a0003d0bf000004e0000300320035
:102bb80010c0b30012f0b700010037001270ef0028
:102bc8000bd0bf000004e0000400320000d0bf00ba
:102bd8000004a2000004e00003003a0001d0bf0096
:102be8000004e0000300320010c0b30013f0b70087
:102bf800010037001370ef000080fa0000000600a3
:102c08000000fa00889fbe00a0818000b18180008a
:102c180002002000e32f2400a2f707000001be00f5
:102c2800a1f70700a0818800b1818800a0818000f9
:102c3800b181800002002000f3372400f7f7070075
:102c48008081880091818800d180800010f8270059
:102c5800008040000000400000f0a7000000ea00eb
:102c6800cf80de006bf807000002be008081800084
:102c7800918180000001be000400be00bdf807007d
:102c880049f807000000780000818800e180800092
:102c980010f82700008040000000400000f0a70066
:102ca8000000ea00cf80de005af807000002be00ec
:102cb80080818000918180000001be000400be0078
:102cc800acf8070038f80700000078001081880089
:102cd80007d0bf000004e00003003a0008d0bf009e
:102ce8000004e0000b00320000d0bf000004e00048
:102cf80003003a0001d0bf000004e00005003200e4
:102d080000818000508188000081800060818800f7
:102d18009900370008d0bf000004e000120032001c
:102d280012d0bf000004a2000004e0000e00320030
:102d380011d0bf000004e0000b003200a081800029
:102d4800b1818000f7f70700000078005081880003
:102d5800a0818000b1818000f2f7070000007800b0
:102d6800608188008400370008d0bf000004e000bc
:102d78006100320000d0bf000004a2000004e0009f
:102d88005d00320001d0bf000004a2000004e00092
:102d98005900320002d0bf000004e00003003a00ee
:102da80003d0bf000004e000530032000ad0bf0087
:102db8000004e0000300320002d0bf000004e0007d
:102dc80006003a000bd0bf000004e00021003200ea
:102dd80003d0bf000004e0001e003200a081800084
:102de800b1818000cff7070000007800508188008b
:102df800a8818000b9818000108180000000400017
:102e08008000eb0006f807000001be000800be00c5
:102e180024f70700c3f707000000780060818800e6
:102e2800608180000000e00007003d0060818000b4
:102e380000f0a7000000ea006081880010c0b3001d
:102e480016f0b700010037001670ef000000000010
:102e5800490037000ad0bf000004e0000300320038
:102e680003d0bf000004e00006003a000bd0bf000a
:102e78000004e0003d00320002d0bf000004e00082
:102e88003c003200a0818000b1818000a5f70700d6
:102e98000000780060818800a8818000b9818000e6
:102ea80010818000000040008000eb00dcf7070084
:102eb8000001be000800be00faf6070099f70700f7
:102ec8000000780050818800508180000000e000f8
:102ed80007003d005081800000f0a7000000ea00d4
:102ee8005081880010c0b30017f0b70022003700e7
:102ef8001770ef002000370000d0bf000004a200c8
:102f08000004e0001600320001d0bf000004a20057
:102f18000004e0001200320007d0bf000004e00007
:102f28000f00320002d0bf000004e00003003200ae
:102f380010818000508188000f00370003d0bf0047
:102f48000004e000030032001081800060818800e6
:102f5800090037002a30ef002c30ef000600370058
:102f68002a30ef002c30ef0003003700000000008b
:102f7800010037000000000000d0bf000004e0009e
:102f88000300320002d0bf000004e00006003a004f
:102f980001d0bf000004e0001000320003d0bf00e1
:102fa8000004e0000d0032000181800010818000e3
:102fb800008040005081880051818000a00f2000cf
:102fc800808f50001d00340010818000a10f200068
:102fd80000805000608188001800370000d0bf00d2
:102fe8000004e0000300320003d0bf000004e0004a
:102ff80006003a0001d0bf000004e0000f003200d4
:1030080002d0bf000004e0000c0032000181800003
:10301800108180000080400060818800618180000c
:10302800a00f2000808f5000040034001081800021
:10303800a10f20000080500050818800508180003e
:103048000000e00001003d002a30ef0060818000b0
:103058000000e00001003d002c30ef004f04be00ee
:103068000080fa00000006000000fa0007d0bf0048
:103078000004e00003003a0008d0bf000004e000ac
:103088000e00320050818000e10f50000b00340028
:1030980051818000a00f2000808f50000200340072
:1030a800a00f2000508188005081800080007800a7
:1030b8001000200031fd0700030037008000eb00fe
:1030c800100020002dfd070007d0bf000004e0001d
:1030d80003003a0008d0bf000004e0000e003200f0
:1030e80060818000e10f50000b0034006181800096
:1030f800a00f2000808f500002003400a00f200095
:1031080060818800608180008000780020002000b5
:103118001afd0700030037008000eb0020002000a4
:1031280016fd07000080fa00000006000000fa0003
:1031380013d0bf000004e0000400320016d0bf0026
:103148000004a2000004e00006003a000ad0bf0014
:103158000004e0000500320016d0bf000004e000c3
:1031680002003200042ea90001003700042ea80036
:1031780013d0bf000004e0000400320017d0bf00e5
:103188000004a2000004e00006003a000ad0bf00d4
:103198000004e0000500320017d0bf000004e00082
:1031a8000200320004eea9000100370004eea80076
:1031b8000080fa00000006000000fa00f08080009d
:1031c800f007b10000f0a7000000ea003081880095
:1031d800a10a200030002000e8fc070008d0bf004a
:1031e8000004e00003003a0006d0bf000004e0003d
:1031f80002003200190ea80001003700190ea900bc
:1032080015d0bf000004e0000800320030818000c3
:10321800e10f50000500360031818000f0032000e6
:103228008088b900408188000700370006d0bf00b9
:103238000004e000030032005000200040818800b4
:10324800010037002830ef000080fa000000060077
:103258000000fa00607180000000d1006140600049
:103268000004a200614060000080fb006100600073
:1032780000004000617180000110a1000100700091
:10328800607188000080fa00000006000000fa0063
:103298004000200010608800f00f200020608800a7
:1032a800062cef00f00f2000506088001a2cef0069
:1032b8001e2cef00202cef00402cef00602cef00bc
:1032c80000002c00e3c1200011322400d2bc2a00e7
:1032d80082097800810978001061880000002c00bc
:1032e800e3c1200011322400d2bc2a0082097800f0
:1032f800810978001062880000002c00e3c12000da
:1033080011322400d2bc2a00820978008109780091
:1033180010638800800f2000e3c1200011322400d0
:10332800d2bc2a00820978008109780020618800cf
:10333800800f2000e3c1200011322400d2bc2a00f3
:10334800820978008109780020628800800f2000b7
:10335800e3c1200011322400d2bc2a00820978007f
:103368008109780020638800f00f20003061880010
:10337800f00f200030628800f00f200030638800d2
:10338800282cef00482cef00682cef002a2cef00c7
:103398004a2cef006a2cef002c2cef004c2cef008d
:1033a8006c2cef00322cef00522cef00722cef0047
:1033b800342cef00542cef00742cef00382cef0065
:1033c800582cef00782cef003a2cef005a2cef0025
:1033d8007a2cef003c2cef005c2cef007c2cef00eb
:1033e8003e2cef005e2cef007e2cef000000280042
:1033f800006088000080fa00000006000000fa0063
:103408000080fa00000006000000fa003140800049
:1034180000202000008060000000e0000200320070
:10342800f6ff07000728a9000080fa000000060040
:103438000000fa000080fa00000006000000fa0010
:103448003140800000202000008060000000e00083
:1034580002003200f6ff07000bc8a9000080fa003e
:10346800000006000000fa000080fa0000000600d4
:103478000000fa0031408000002020000080600039
:103488000000e00002003200f6ff07000be8a90088
:103498000080fa00000006000000fa000080fa0030
:1034a800000006000000fa003140800000202000e3
:1034b800008060000000e00002003200f6ff070014
:1034c8000c08a9000080fa00000006000000fa00bd
:1034d800003a80000080fa00000006000200fa00ae
:1034e800faff0700000f78001e007800240007008c
:1034f8000004e0000200320000002800710007000c
:103508001e0078002a0007000004e00002003200d4
:10351800000024006b0007001e007800320007003e
:103528000004e000020032000020200065000700cf
:103538001e0078003a0007000004e0000200320094
:10354800000820005f0007001e0078004200070006
:103558000004e000020032000004200059000700c7
:103568001e0078004a0007000004e0000200320054
:1035780000012000530007000080fa000000060048
:103588000400fa00100798000040eb00004f780094
:103598001e0090000000e00002003d0010c0b300d3
:1035a800004f78001e4078000080fa0000000600f6
:1035b8000400fa00100798000040eb00004f780064
:1035c8009e00900000002400008060000000e000e1
:1035d8000200320010c0b300004f78001e4078008f
:1035e8000080fa00000006000400fa0010079800a6
:1035f8000040eb00004f78009e0090000020200063
:10360800008060000000e0000200320010c0b3003b
:10361800004f78001e4078000080fa000000060085
:103628000400fa00100798000040eb00004f7800f3
:103638009e00900000082000008060000000e0006c
:103648000200320010c0b300004f78001e4078001e
:103658000080fa00000006000400fa001007980035
:103668000040eb00004f78009e009000000420000e
:10367800008060000000e0000200320010c0b300cb
:10368800004f78001e4078000080fa000000060015
:103698000400fa00100798000040eb00004f780083
:1036a8001e009000700060000000e0000200320080
:1036b80010c0b300004f78001e4078000080fa0068
:1036c800000006000200fa00000f78009e80ea0061
:1036d800003a800000806000003a88000080fa000c
:1036e800000006000000fa004027ef000080fa0002
:1036f800000006000000fa000021ef00002720006b
:1037080010088800000228002008880050828000e5
:103718000000e00002003a0060bd2100240007001c
:103728000068a9002068a800e00621008040eb009e
:10373800014878000080fa00000006000200fa0044
:10374800000f78009e00780011088800e00621002c
:103758008040eb00014878000080fa000000060075
:103768000000fa00100880000080fa00000006003f
:103778000200fa00000f78009e0078000108880017
:10378800e00621008040eb00014878000080fa0044
:10379800000006000000fa00000880000080fa001f
:1037a800000006000000fa000080fa000000060091
:1037b8000200fa00000f78002068a9009e00780037
:1037c800518288002068a8000080fa0000000600e6
:1037d8000000fa00e00621008040eb000148780074
:1037e8002068a80005e1a8000080fa000000060093
:1037f8000000fa0005e1a9002068a9000080fa008d
:10380800000006000200fa00e0062100104f7800d0
:103818001e4078000004e00003003200e0062100aa
:103828008040eb00014878001e4078000080fa00d4
:10383800000006000000fa00f006210010407800a1
:103848000080fb000080fa00000006000000fa007b
:10385800f00621008040eb00014878000080fa0063
:10386800000006000000fa0000022200005888004c
:103878006004200010588800062bef00000021008b
:10388800205888000a2bef00082bef000c2bef00c4
:1038980070002000705888000088a9002088a800bf
:1038a80000022000805888002002200090588800dc
:1038b800162bef0000002100a05888001a2bef00fb
:1038c800182bef001c2bef0070002000f058880028
:1038d80001c8a90021c8a8000002200000598800da
:1038e8002002200010598800262bef00000021003c
:1038f800205988002a2bef00282bef002c2bef00f3
:1039080070002000705988000308a90000022200f6
:10391800805988006004200090598800362bef00f9
:1039280000002100a05988003a2bef00382bef0047
:103938003c2bef0070002000f05988000488a90093
:103948000080fa00000006000000fa000080fa007b
:10395800000006000000fa000080fa0000000600df
:103968000000fa000080fa00000006000000fa00db
:103978001140800000102000008060000000e0007e
:1039880002003200f6ff07000308a9000080fa00d1
:10399800000006000000fa000080fa00000006009f
:1039a8000000fa0020408000700060000000e00085
:1039b80002003200f7ff07000488a9000080fa001f
:1039c800000006000000fa00042eef00182eef0099
:1039d8002c2eef00402eef00542eef00682eef0043
:1039e8007c2eef0010b0210000708800f00f20003e
:1039f800a070880040fe2300407188000016200057
:103a0800e071880000002f008072880010002000fc
:103a180020738800001c2000c07388000c2eef0063
:103a2800202eef00342eef00482eef005c2eef0022
:103a3800702eef00842eef002000200050708800c8
:103a48001e2eef00322eef00462eef005a2eef000a
:103a58006e2eef00822eef00062eef001a2eef00da
:103a68002e2eef00422eef00562eef006a2eef00aa
:103a78007e2eef0020a0210070708800f008200042
:103a880010718800007e2000b07188005e2eef0063
:103a9800001c200030748800113a8000f00b2000d0
:103aa800008160006004200071052000237420005c
:103ab8008049780081497800824978001134800073
:103ac80000fc2f0000806000e000b3001034880084
:103ad80000c6b300d4e6b700103a800000017800b1
:103ae8000260a000600420007105200023742000fb
:103af8008049780081497800824978000080fa007e
:103b0800000006000000fa0000102300203a880098
:103b18004827ef004e27ef0060022000303a880067
:103b28006027ef006227ef006427ef006627ef00a9
:103b38006a27ef006c27ef006e27ef0032002000a5
:103b480080072000a10920003374200080497800f4
:103b58008149780082497800120020006004200022
:103b6800710520002374200080497800814978007d
:103b78008249780000000000103a8000610060006f
:103b88000000e000fcff3a0000000000113a80004d
:103b980000022000008060000000e000fbff32000f
:103ba8000080fa00000006000200fa00000f78000a
:103bb80021028000200f2000008060001e0070009d
:103bc800200288000080fa00000006000000fa00c9
:103bd800c3e8a80000000000000000000080fa0010
:103be800000006000000fa0076ff0700c5ff070086
:103bf8000a00070040000700a4fd070041f707007e
:103c0800bcfe070017ff0700f0ff070000022000b6
:103c1800e5ff07000080fa00000006000000fa0037
:103c280081428000f0ff28000080600000c0a000f2
:103c38008042880031428000f0f82f000080600048
:103c48000040a0003042880031428000f08f2f00f1
:103c58008080600000302000010070003042880041
:103c68001142800080ff2f00008060000020a0002b
:103c78001042880001428000f0ff280000806000a8
:103c880000d0a000004288000080fa000000060072
:020000040000fa
:103c98004e100000200000008000000048100000c6
:103ca8000200000082000000ffff00006e1000000c
:103cb80002000000800000004a100000020000001e
:103cc800800000004c10000002000000800000008e
:103cd800001000003c0000008000000000120000fe
:103ce80000020000800000003c1000000c000000f2
:083cf800800000000000000044
:020000040000fa
:103d00000000fa0040012800001988002223ef007b
:103d100090802000201988002823ef002e23ef0038
:103d20003023ef003223ef002623ef0000ea2100ca
:103d30000600070021a8a8000080fa000000060085
:103d40000000fa000080fa00000006000200fa00fd
:103d5000000f78001e007800608288000080fa0062
:043d60000000060059
:020000040000fa
:103d6400f03fb1000180b10006003500ee03090008
:103d740000000000403fb1000180b100fbff3d00a6
:103d84001000b000203fb0000200350000800900a0
:083d9400000000000000060021
:020000040000fa
:103d9c000200fa00000f78009e0078004182880033
:103dac00ffff37000000fa00e004210080077800d4
:103dbc0060062100000188000080fa000000060067
:103dcc000000fa00792ea9007d2ea900642ea9000e
:103ddc00640ea8000080fa00000006000000fa0043
:103dec000080fa00000006000000fa000080fa00d3
:103dfc00000006000000fa000080fa000000060037
:020000040000fa
:020000040005f5
:04570000ffff0000a7
:020000040000fa
:020000040005f5
:04572000ffff000087
:020000040000fa
:020000040005f5
:0457300078ff0000fe
:020000040000fa
:020000040005f5
:045738003aff000034
:020000040000fa
:020000040005f5
:045740008aff0000dc
:020000040000fa
:020000040005f5
:04574800ffff00005f
:020000040000fa
:020000040005f5
:04575000feff000058
:020000040000fa
:020000040005f5
:04575800000000004d
:020000040000fa
:020000040005f5
:045760000000000045
:020000040000fa
:020000040005f5
:04576800000000003d
:020000040000fa
:020000040005f5
:045770000000000035
:020000040000fa
:020000040005f5
:04577800feff000030
:020000040000fa
:020000040005f5
:04578000ffff000027
:020000040000fa
:020000040005f5
:04578800ffff00001f
:00000001FF
